{
  "_format": "hh-sol-artifact-1",
  "contractName": "Vendor",
  "sourceName": "contracts/Vendor.sol",
  "abi": [
    {
      "inputs": [
        {
          "internalType": "address",
          "name": "_tokenAddress",
          "type": "address"
        },
        {
          "internalType": "uint256",
          "name": "_tokensPerETH",
          "type": "uint256"
        }
      ],
      "stateMutability": "nonpayable",
      "type": "constructor"
    },
    {
      "inputs": [],
      "name": "buy",
      "outputs": [
        {
          "internalType": "uint256",
          "name": "",
          "type": "uint256"
        }
      ],
      "stateMutability": "payable",
      "type": "function"
    },
    {
      "inputs": [],
      "name": "tokensPerEth",
      "outputs": [
        {
          "internalType": "uint256",
          "name": "",
          "type": "uint256"
        }
      ],
      "stateMutability": "view",
      "type": "function"
    }
  ],
  "bytecode": "0x608060405234801561001057600080fd5b506040516106f03803806106f0833981810160405281019061003291906100aa565b816000806101000a81548173ffffffffffffffffffffffffffffffffffffffff021916908373ffffffffffffffffffffffffffffffffffffffff160217905550806001819055505050610150565b60008151905061008f81610122565b92915050565b6000815190506100a481610139565b92915050565b600080604083850312156100bd57600080fd5b60006100cb85828601610080565b92505060206100dc85828601610095565b9150509250929050565b60006100f1826100f8565b9050919050565b600073ffffffffffffffffffffffffffffffffffffffff82169050919050565b6000819050919050565b61012b816100e6565b811461013657600080fd5b50565b61014281610118565b811461014d57600080fd5b50565b6105918061015f6000396000f3fe6080604052600436106100295760003560e01c8063a6f2ae3a1461002e578063cbdd69b51461004c575b600080fd5b610036610077565b60405161004391906103de565b60405180910390f35b34801561005857600080fd5b50610061610274565b60405161006e91906103de565b60405180910390f35b60008034116100bb576040517f08c379a00000000000000000000000000000000000000000000000000000000081526004016100b29061039e565b60405180910390fd5b6000600154346100cb919061040a565b905060008060009054906101000a900473ffffffffffffffffffffffffffffffffffffffff1673ffffffffffffffffffffffffffffffffffffffff166370a08231306040518263ffffffff1660e01b8152600401610129919061035a565b60206040518083038186803b15801561014157600080fd5b505afa158015610155573d6000803e3d6000fd5b505050506040513d601f19601f8201168201806040525081019061017991906102cd565b9050818110156101be576040517f08c379a00000000000000000000000000000000000000000000000000000000081526004016101b5906103be565b60405180910390fd5b60008054906101000a900473ffffffffffffffffffffffffffffffffffffffff1673ffffffffffffffffffffffffffffffffffffffff1663a9059cbb33846040518363ffffffff1660e01b8152600401610219929190610375565b602060405180830381600087803b15801561023357600080fd5b505af1158015610247573d6000803e3d6000fd5b505050506040513d601f19601f8201168201806040525081019061026b91906102a4565b50819250505090565b60015481565b6000815190506102898161052d565b92915050565b60008151905061029e81610544565b92915050565b6000602082840312156102b657600080fd5b60006102c48482850161027a565b91505092915050565b6000602082840312156102df57600080fd5b60006102ed8482850161028f565b91505092915050565b6102ff81610464565b82525050565b60006103126010836103f9565b915061031d826104db565b602082019050919050565b60006103356014836103f9565b915061034082610504565b602082019050919050565b610354816104a2565b82525050565b600060208201905061036f60008301846102f6565b92915050565b600060408201905061038a60008301856102f6565b610397602083018461034b565b9392505050565b600060208201905081810360008301526103b781610305565b9050919050565b600060208201905081810360008301526103d781610328565b9050919050565b60006020820190506103f3600083018461034b565b92915050565b600082825260208201905092915050565b6000610415826104a2565b9150610420836104a2565b9250817fffffffffffffffffffffffffffffffffffffffffffffffffffffffffffffffff0483118215151615610459576104586104ac565b5b828202905092915050565b600061046f82610482565b9050919050565b60008115159050919050565b600073ffffffffffffffffffffffffffffffffffffffff82169050919050565b6000819050919050565b7f4e487b7100000000000000000000000000000000000000000000000000000000600052601160045260246000fd5b7f4e6f7420656e6f75676820657468657200000000000000000000000000000000600082015250565b7f4e6f7420656e6f756768206c6971756964697479000000000000000000000000600082015250565b61053681610476565b811461054157600080fd5b50565b61054d816104a2565b811461055857600080fd5b5056fea26469706673582212207ceaf45f5a28ca35c532f089c864c82310992096ebaaf6718c8faa06a3316b5664736f6c63430008040033",
  "linkReferences": {},
  "deployedLinkReferences": {}
}